:020000040800F2
:1000000000000120890C00082509000827090008C4
:10001000290900082B0900082D090008000000002C
:100020000000000000000000000000002F09000890
:1000300031090008000000003309000835090008F4
:10004000D90C0008D90C0008D90C0008D90C0008FC
:10005000D90C0008D90C0008D90C0008D90C0008EC
:10006000D90C0008D90C0008D90C0008D90C0008DC
:10007000D90C0008D90C0008D90C0008D90C0008CC
:10008000D90C0008D90C0008D90C000800000000A9
:10009000000000000000000000000000D90C000873
:1000A000D90C0008D90C0008D90C0008D90C00089C
:1000B0003D090008D90C0008D90C0008D90C00082B
:1000C000D90C0008D90C0008D90C0008D90C00087C
:1000D000D90C00084D090008D90C000800000000E8
:1000E000D90C0008D90C0008D90C00080000000049
:1000F000000000000000000000000000D90C000813
:1001000000000000D90C0008D90C0008D90C000828
:1001100000000000000000000000000000000000DF
:10012000D90C0008D90C000865090008D90C000892
:10013000D90C0008000000000000000000000000D2
:10014000000000000000000000000000D90C0008C2
:10015000D90C0008D90C000875090008D90C000852
:10016000D90C0008D90C00080000000000000000B5
:10017000000000000000000000000000000000007F
:1001800000000000D90C0008000000000000000082
:04019000D90C00087E
:1001940010B5054C237833B9044B13B10448AFF3BD
:1001A40000800123237010BD4404002000000000DF
:1001B400382F000808B5034B1BB103490348AFF3BC
:1001C400008008BD0000000048040020382F00080B
:1001D40080F0004002E000BF81F0004142001FBFF8
:1001E4005FEA410392EA030F7FEA226C7FEA236C01
:1001F4006AD04FEA1262D2EB1363C1BFD2184140F6
:1002040048404140B8BF5B42192B88BF704710F08B
:10021400004F40F4000020F07F4018BF404211F02E
:10022400004F41F4000121F07F4118BF494292EA96
:10023400030F3FD0A2F1010241FA03FC10EB0C00C2
:10024400C3F1200301FA03F100F0004302D549424F
:1002540060EB4000B0F5000F13D3B0F1807F06D3FC
:1002640040084FEA310102F10102FE2A51D2B1F1F4
:10027400004F40EBC25008BF20F0010040EA0300E9
:100284007047490040EB0000013A28BFB0F5000F69
:10029400EDD2B0FA80FCACF1080CB2EB0C0200FA1F
:1002A4000CF0AABF00EBC25052421843BCBFD0406E
:1002B4001843704792F0000F81F4000106BF80F4E8
:1002C40000000132013BB5E74FEA41037FEA226CAB
:1002D40018BF7FEA236C21D092EA030F04D092F076
:1002E400000F08BF0846704790EA010F1CBF0020AA
:1002F400704712F07F4F04D1400028BF40F0004007
:10030400704712F100723CBF00F50000704700F026
:10031400004343F0FE4040F4000070477FEA22624D
:1003240016BF08467FEA23630146420206BF5FEA1E
:10033400412390EA010F40F4800070474FF000031E
:1003440004E000BF10F0004348BF40425FEA000CE5
:1003540008BF704743F0964301464FF000001CE08D
:1003640050EA010208BF70474FF000030AE000BFE3
:1003740050EA010208BF704711F0004302D5404221
:1003840061EB41015FEA010C02BF84460146002093
:1003940043F0B64308BFA3F18053A3F50003BCFAAE
:1003A4008CF2083AA3EBC25310DB01FA02FC63445B
:1003B40000FA02FCC2F12002BCF1004F20FA02F262
:1003C40043EB020008BF20F00100704702F1200255
:1003D40001FA02FCC2F1200250EA4C0021FA02F2B6
:1003E40043EB020008BF20EADC70704742000ED2E3
:1003F400B2F1FE4F0BD34FF09E03B3EB126209D45C
:100404004FEA002343F0004323FA02F070474FF011
:100414000000704712F1610F01D1420202D14FF086
:10042400FF3070474FF00000704700BF53B94AB91E
:10043400002908BF00281CBF4FF0FF314FF0FF30E8
:1004440000F074B9ADF1080C6DE904CE00F006F8C3
:10045400DDF804E0DDE9022304B070472DE9F0473C
:10046400089E0D4604468846002B4DD18A42944688
:1004740068D9B2FA82F252B101FA02F3C2F1200150
:1004840020FA01F10CFA02FC41EA030894404FEA15
:100494001C45210CB8FBF5FE1FFA8CF705FB1E83E7
:1004A40041EA03430EFB07F199420BD91CEB03030A
:1004B4000EF1FF3080F01E81994240F21B81AEF1B3
:1004C400020E63445B1AA4B2B3FBF5F005FB1033D0
:1004D40044EA034400FB07F7A7420AD91CEB0404CF
:1004E40000F1FF3380F00881A74240F205816444A3
:1004F4000238E41B40EA0E4000211EB1D440002320
:10050400C6E90043BDE8F0878B4208D9002E00F00D
:10051400EE800021C6E900050846BDE8F087B3FA7D
:1005240083F100294AD1AB4202D3824200F2F9801E
:10053400841A65EB030301209846002EE2D0C6E935
:100544000048DFE702B9FFDEB2FA82F2002A40F087
:100554009180A1EB0C054FEA1C471FFA8CFE012188
:10056400B5FBF7F307FB1350250C45EA00450EFBDA
:1005740003F0A84208D91CEB050503F1FF3802D2A9
:10058400A84200F2CB8043462D1AA4B2B5FBF7F083
:1005940007FB105544EA05440EFB00FEA64508D9A6
:1005A4001CEB040400F1FF3502D2A64500F2BB8027
:1005B4002846A4EB0E0440EA03409EE7C1F120075D
:1005C4008B4022FA07FC4CEA030C20FA07F405FAE4
:1005D40001F31C43FD404FEA1C4900FA01F3B5FB4B
:1005E400F9F8200C1FFA8CFE09FB185540EA054562
:1005F40008FB0EF0A84202FA01F20BD91CEB050528
:1006040008F1FF3A80F08880A84240F28580A8F182
:10061400020865442D1AA4B2B5FBF9F009FB105584
:1006240044EA054500FB0EFEAE4508D91CEB050562
:1006340000F1FF346CD2AE456AD90238654440EA11
:100644000840A0FB0294A5EB0E05A542C846A646A9
:1006540056D353D05EB1B3EB080265EB0E0505FA31
:1006640007F722FA01F3CD401F43C6E900750021C4
:10067400BDE8F087C2F1200320FA03F10CFA02FC72
:1006840025FA03F395400D434FEA1C471FFA8CFEED
:10069400B3FBF7F107FB11302B0C43EA004301FBDA
:1006A4000EF0984204FA02F408D91CEB030301F19A
:1006B400FF382FD298422DD9023963441B1AADB2A8
:1006C400B3FBF7F007FB103345EA034500FB0EF3D9
:1006D400AB4208D91CEB050500F1FF3816D2AB423A
:1006E40014D902386544ED1A40EA014138E731462D
:1006F400304607E78646E5E61846FAE64B45A9D2B2
:10070400B9EB020864EB0C0E0138A3E74046EAE7B4
:10071400204694E74146D1E7D0467BE7023B654457
:1007240032E7084609E76444023842E7704700BFED
:1007340010B582B0002401940D4B1A6B42F4800270
:100744001A631B6B03F480030193019B2246214629
:100754003A2000F025FB3A2000F05AFB22462146BD
:10076400462000F01DFB462000F052FB02B010BDF5
:100774000038024030B58BB00024059406940794E9
:100784000894099401941E4B1A6B42F004021A63F4
:100794001A6B02F004020192019A02941A6B42F05D
:1007A40080021A631A6B02F080020292029A039486
:1007B4001A6B42F001021A631A6B02F001020392EF
:1007C400039A04941A6B42F002021A631B6B03F03F
:1007D40002030493049B0B4D22464FF40051284618
:1007E40000F07CFE4FF40053059301230693079415
:1007F400089405A9284600F091FD0BB030BD00BF58
:100804000038024000080240704772B6FEE700005C
:1008140000B595B03022002108A802F0C9FA0023DF
:100824000393049305930693079301931F4A116C52
:1008340041F080511164126C02F080520192019ACD
:1008440002931B490A6822F4404242F400420A60BF
:100854000A6802F440420292029A0222089201219A
:100864000B9110210C910E920F930823109348239F
:10087400119312920423139308A800F035FE80B953
:100884000F23039302210491002305934FF4805214
:100894000692079303A801F075F820B915B05DF826
:1008A40004FBFFF7B2FFFFF7B0FF00BF00380240C0
:1008B4000070004008B500F035FAFFF7A9FFFFF714
:1008C40059FFFFF735FF00F05DF800F0F5F800F090
:1008D4003FF9044801F0DEF902F024FA02F090F93D
:1008E400FEE700BF6004002082B0002100910B4BA2
:1008F4005A6C42F480425A645A6C02F48042009268
:10090400009A01911A6C42F080521A641B6C03F035
:1009140080530193019B02B0704700BF003802402E
:10092400FEE7FEE7FEE7FEE7FEE770477047704725
:1009340008B500F011FA08BD08B5024801F0E4F961
:1009440008BD00BF6004002010B5044C204601F02F
:100954004FFF204602F0A0F910BD00BFB0050020F3
:1009640008B5024800F0ECFB08BD00BFF00400200D
:1009740008B5024800F0E4FB08BD00BF50050020A4
:100984007047000000B587B00023029303930493DB
:1009940005930093019316484FF08042026041F69C
:1009A4001F42426083606322C260036180238361CB
:1009B40001F0B6FA90B94FF48053029302A90C489F
:1009C40001F0B2FB68B9002300930193694608481B
:1009D40001F0B0FC40B907B05DF804FBFFF715FF68
:1009E400E9E7FFF712FFEEE7FFF70FFFF3E700BFBA
:1009F400600400200368B3F1804F00D0704700B555
:100A040083B00021019103F50E331A6C42F0010208
:100A14001A641B6C03F001030193019B0A461C201A
:100A240000F0BEF91C2000F0F3F903B05DF804FBFC
:100A34000268094B9A4200D0704782B000230193A8
:100A4400064B1A6C42F004021A641B6C03F0040394
:100A54000193019B02B07047000800400038024037
:100A640000B587B000230193029303930493059385
:100A740002680E4B9A4202D007B05DF804FB0023D3
:100A840000930B4B1A6B42F002021A631B6B03F0C8
:100A940002030093009BC023019302230293059356
:100AA40001A9044800F03AFCE6E700BF0008004052
:100AB400003802400004024000B58BB000230893C4
:100AC4000993019302930393049305930693079365
:100AD4001D481E4A026047224260836044F61F623A
:100AE400C26003618023836101F046FAF8B90023F0
:100AF4000893099308A9144801F01CFCD0B9602399
:100B04000193002202920392059201A90E4801F07A
:100B140091FA90B904220DEB02010B4801F08AFA14
:100B240070B90948FFF79CFF0BB05DF804FBFFF7B1
:100B34006CFEDCE7FFF769FEE1E7FFF766FEE9E735
:100B4400FFF763FEEDE700BFA804002000080040A3
:100B540008B50A480A4B03604FF4E13343600023AD
:100B64008360C36003610C2242618361C36101F04D
:100B740017FD00B908BDFFF748FEFBE7B0050020EC
:100B84000010014030B589B000230393049305930A
:100B940006930793026803F1804303F588339A426E
:100BA40001D009B030BD04460025019503F5943306
:100BB4005A6C42F010025A645A6C02F0100201920C
:100BC400019A02951A6B42F001021A631B6B03F03F
:100BD40001030293029B4FF4C06303930223049323
:100BE400032306930723079303A9214800F096FBE8
:100BF4002048214B03604FF0006343608560C5606B
:100C04004FF480630361456185614FF48073C36170
:100C14000562456200F09CF918BB164BA3639C6304
:100C24001648174B03604FF0006343604023836012
:100C34000023C3604FF48062026143618361C36136
:100C44000362436200F084F970B90C4B63639C63E4
:100C540000221146252000F0A3F8252000F0D8F842
:100C64009FE7FFF7D2FDD8E7FFF7CFFDEDE700BF21
:100C740000000240F00400204064024050050020BF
:100C8400B8640240DFF834D00D480E490E4A002300
:100C940002E0D458C4500433C4188C42F9D30B4A2C
:100CA4000B4C002301E013600432A242FBD3FFF794
:100CB40067FE02F059F8FFF7FDFD704700000120C0
:100CC4000000002044040020882F00084404002071
:100CD40058080020FEE7000010B504460E4B1878B3
:100CE4004FF47A73B3FBF0F30C4A1068B0FBF3F0E3
:100CF40000F09CF868B90F2C01D901200AE0002209
:100D040021464FF0FF3000F04BF8054B1C600020EB
:100D140000E0012010BD00BF0400002000000020FE
:100D24000800002008B50B4B1A6842F400721A60E0
:100D34001A6842F480621A601A6842F480721A6077
:100D4400032000F01BF80F20FFF7C6FFFFF7CCFDD0
:100D5400002008BD003C0240034A1168034B1B7885
:100D64000B441360704700BFF4050020040000200A
:100D7400014B1868704700BFF4050020074AD36888
:100D840023F4E0631B041B0C000200F4E060034343
:100D940043F0BF6343F40033D360704700ED00E0D9
:100DA40000B5194BDB68C3F30223C3F1070CBCF194
:100DB400040F28BF4FF0040C03F1040EBEF1060F1C
:100DC40018D9033B4FF0FF3E0EFA0CFC21EA0C014C
:100DD40099400EFA03F322EA0303194300280BDBBC
:100DE4000901C9B200F1604000F5614080F80013C8
:100DF4005DF804FB0023E5E700F00F000901C9B228
:100E0400024B1954F4E700BF00ED00E014ED00E0DC
:100E1400002807DB00F01F02400901239340024A27
:100E240042F82030704700BF00E100E00138B0F123
:100E3400807F0BD24FF0E0235861054AF02182F8FD
:100E440023100020986107221A617047012070471F
:100E540000ED00E030B405682C6824F480242C6094
:100E6400046863608368402B05D003689960036855
:100E7400DA6030BC704703689A600368D960F8E7A9
:100E840010B40368D9B210390B4AA2FB014212090B
:100E94000A4CA25CC2655F2908D923F47F7323F04E
:100EA400030304338365806D10BC704723F47F73A0
:100EB40023F003038365F6E7ABAAAAAA682F000808
:100EC400836A826992B9012B0AD0022B02D00BB13A
:100ED40000207047C36A13F0807F28D10020704738
:100EE400C36AB3F1C07F24D000207047B2F5005F1D
:100EF40009D0022B25D9032B25D1C36A13F0807F97
:100F040023D100207047032B03D8DFE803F0140437
:100F1400140A00207047C36A13F0807F0DD10020AB
:100F24007047C36AB3F1C07F09D000207047012025
:100F3400704701207047012070470120704701204D
:100F4400704701207047002070470120704700005F
:100F540070B50446FFF70CFF002C5BD00546022356
:100F640084F83530002384F834302268136823F081
:100F74000103136023681A6812F0010F0AD0FFF707
:100F8400F7FE431B052BF5D920236365032084F862
:100F9400350070BD1A68204810406168A2680A4391
:100FA400E1680A4321690A4361690A43A1690A4362
:100FB400E1690A43216A0A430243616A04291ED093
:100FC4001A602668756925F00705636A1D43042BBA
:100FD40007D1A36A1D43E36A1BB12046FFF770FFE4
:100FE40090B975612046FFF74BFFE26D3F239340B4
:100FF400836000206065012384F83530C9E7E16A25
:10100400206B01430A43DBE740236365012084F836
:101014003500BEE70120BCE73F8010F038B5044638
:10102400856D90F8340001282BD0012084F8340019
:1010340094F83500C0B2012804D0002384F8343079
:10104400022038BD022084F8350000206065204667
:10105400FFF700FFE26D3F239340AB602268136803
:1010640043F016031360236C23B12268136843F022
:10107400080313602268136843F00103136000201F
:10108400DFE70220DDE770B50446866DFFF770FEEA
:1010940094F83530DBB2022B06D08023636500233D
:1010A40084F83430012070BD05462268136823F0AB
:1010B400160313602268536923F080035361236C81
:1010C400E3B12268136823F00803136022681368ED
:1010D40023F00103136023681B6813F0010F11D080
:1010E400FFF746FE431B052BF5D920236365032038
:1010F40084F83500002384F83430D4E7A36C002B43
:10110400DFD1E3E7E26D3F239340B360012384F82A
:101114003530002084F83400C5E790F83530DBB270
:10112400022B03D08023436501207047052380F8F8
:1011340035300268136823F0010313600020704700
:10114400F0B583B0044600230193724B1D68724BC3
:10115400A3FB0535AD0A876D3E68C26D0823934035
:10116400334210D003681A6812F0040F0BD01A68C7
:1011740022F004021A60C26D08239340BB60436DE1
:1011840043F001034365E26D01239340334209D0E8
:101194002268526912F0800F04D0BB60636D43F083
:1011A40002036365E26D04239340334209D022684D
:1011B400126812F0020F04D0BB60636D43F00403A5
:1011C4006365E26D10239340334224D02268126891
:1011D40012F0080F1FD0BB6023681A6812F4802F26
:1011E4000DD01B6813F4002F04D1236C9BB120464F
:1011F400984710E0A36C73B1204698470BE01A6837
:1012040012F4807F03D11A6822F008021A60236C5A
:101214000BB120469847E26D20239340334255D0CA
:101224002268126812F0100F50D0BB6094F8353069
:10123400DBB2052B0ED023681A6812F4802F33D04A
:101244001B6813F4002F2AD1636C002B3ED0204678
:1012540098473BE02268136823F016031360226862
:10126400536923F080035361236CA3B1226813688C
:1012740023F008031360E26D3F239340BB60012316
:1012840084F83530002384F83430236D002B3FD0AC
:10129400204698473CE0A36C002BE7D1EBE7E36BD7
:1012A400A3B12046984711E01A6812F4807F09D14F
:1012B4001A6822F010021A60012384F835300023E2
:1012C40084F83430E36B0BB120469847636DFBB16F
:1012D400636D13F0010F17D0052384F835302268AD
:1012E400136823F001031360019B01330193AB42A4
:1012F40004D823681B6813F0010FF5D1012384F887
:101304003530002384F83430E36C0BB12046984721
:1013140003B0F0BD00000020B5814E1B00230F2B4D
:1013240000F2D28070B582B060E085685E0003246C
:10133400B44025EA0405CC68B4402C438460456875
:1013440025EA02054C68C4F300129A402A4342601D
:101354005AE0DC08083450F8246003F007029500D2
:101364000F22AA4026EA020E0A69AA4042EA0E02A5
:1013740040F824205CE0042200E0002202FA0EF28D
:101384002A430234514D45F82420514A94686FEAA7
:101394000C0224EA0C054E6816F4801F01D04CEAB6
:1013A40004054B4CA560E46802EA04054E6816F493
:1013B400001F01D04CEA0405454CE560646802EA6C
:1013C40004054E6816F4003F01D04CEA0405404C75
:1013D4006560246822404D6815F4803F01D04CEAD2
:1013E40004023B4C226001330F2B6BD801229A403C
:1013F4000C6804EA020C32EA0404F4D14C6804F0E8
:101404000304013C012C90D94A6802F00302032A28
:1014140009D0C4685D000322AA4024EA02048A6851
:10142400AA402243C2604A6802F00302022A90D012
:1014340004684FEA430E032202FA0EF224EA02047D
:101444004A6802F0030202FA0EF2224302604A687A
:1014540012F4403FC7D0002201921E4A546C44F457
:1014640080445464526C02F480420192019A9C08B4
:10147400A51C164A52F8255003F003024FEA820EC7
:101484000F2202FA0EF225EA0205134A90423FF4B3
:1014940074AF02F5806290420ED002F580629042F1
:1014A4000CD002F5806290420AD002F5806290422C
:1014B4003FF461AF072261E701225FE702225DE7A3
:1014C40003225BE702B070BD704700BF00380140E3
:1014D400003C014000380240000002400AB1816132
:1014E4007047090481617047002800F0E08170B5FD
:1014F40082B00446036813F0010F3BD09F4B9B68F6
:1015040003F00C03042B2CD09C4B9B6803F00C03BE
:10151400082B21D06368B3F5803F4FD0B3F5A02FDB
:1015240052D0964B1A6822F480321A601A6822F458
:1015340080221A606368002B50D0FFF719FC05461F
:101544008E4B1B6813F4003F14D1FFF711FC401BB2
:101554006428F5D90320B1E1884B5B6813F4800F4C
:10156400D8D0864B1B6813F4003F03D06368002B6C
:1015740000F09F81236813F0020F54D07F4B9B68C7
:1015840013F00C0F3ED07D4B9B6803F00C03082B2B
:1015940033D0E368002B68D0794B01221A60FFF73F
:1015A400E7FB0546754B1B6813F0020F54D1FFF798
:1015B400DFFB401B0228F5D903207FE16F4A136843
:1015C40043F480331360B5E76C4B1A6842F480220D
:1015D4001A601A6842F480321A60ABE7FFF7C8FB5E
:1015E4000546664B1B6813F4003FC3D0FFF7C0FBEE
:1015F400401B6428F5D9032060E1604B5B6813F459
:10160400800FC6D15D4B1B6813F0020F03D0E36853
:10161400012B40F05081594A136823F0F8032169E3
:1016240043EAC1031360236813F0080F42D06369CF
:101634006BB3534B0122C3F8802EFFF799FB054689
:101644004E4B5B6F13F0020F34D1FFF791FB401B3D
:101654000228F5D9032031E1484A136823F0F8033E
:10166400216943EAC1031360DDE7454B00221A6098
:10167400FFF77EFB0546414B1B6813F0020FD2D0E7
:10168400FFF776FB401B0228F5D9032016E13C4BFB
:101694000022C3F8802EFFF76BFB0546374B5B6FC8
:1016A40013F0020F06D0FFF763FB401B0228F5D9A5
:1016B400032003E1236813F0040F77D02F4B1B6C36
:1016C40013F0805F33D1002301932C4B1A6C42F04A
:1016D40080521A641B6C03F080530193019B012513
:1016E400284B1B6813F4807F23D0A368012B34D0CC
:1016F400052B38D0214B1A6F22F001021A671A6F9A
:1017040022F004021A67A368002B3DD0FFF730FBD8
:1017140006461A4B1B6F13F0020F46D1FFF728FB46
:10172400801B41F288339842F3D90320C6E0002598
:10173400D6E7144A136843F480731360FFF718FB69
:101744000646104B1B6813F4807FCED1FFF710FBC5
:10175400801B0228F5D90320B0E0084A136F43F038
:1017640001031367CFE7054B1A6F42F004021A67AF
:101774001A6F42F001021A67C5E700BF0038024041
:101784000000474200700040FFF7F2FA0646524B51
:101794001B6F13F0020F08D0FFF7EAFA801B41F227
:1017A40088339842F3D9032088E0EDB9A369002B6C
:1017B40000F08380484A926802F00C02082A51D053
:1017C400022B17D0454B00221A66FFF7D1FA0446C4
:1017D400414B1B6813F0007F42D0FFF7C9FA001B8E
:1017E4000228F5D9032069E03B4A136C23F08053A7
:1017F4001364DBE7394B00221A66FFF7B9FA054692
:10180400354B1B6813F0007F06D0FFF7B1FA401B7D
:101814000228F5D9032051E0E369226A1343626A7E
:1018240043EA8213A26A5208013A43EA0243E26A93
:1018340043EA0263284A5360284B01221A66FFF7E1
:1018440097FA0446244B1B6813F0007F06D1FFF778
:101854008FFA001B0228F5D903202FE000202DE089
:1018640000202BE0012B2BD01B4B5B6803F4800181
:10187400E269914226D103F03F02216A8A4223D1D0
:10188400616A47F6C0721A40B2EB811F1ED103F49D
:101894004031A26A5208013AB1EB024F18D103F069
:1018A4007063E26AB3EB026F14D1002006E00120FA
:1018B4007047012002E0012000E0002002B070BD6A
:1018C4000120FBE70120F9E70120F7E70120F5E714
:1018D4000120F3E70120F1E700380240000047420D
:1018E40008B5254B9B6803F00C03042B3FD0082B51
:1018F4003FD1214B5A6802F03F025B6813F4800F1A
:1019040012D01D4B5968C1F388111C480023A1FB58
:101914000001FEF78BFD184B5B68C3F301430133F1
:101924005B00B0FBF3F025E0134B5968C1F3881C4E
:101934004FEA4C11B1EB0C006EEB0E0E4FEA8E1316
:1019440043EA90638101091A63EB0E03DB0043EA67
:101954005173C90011EB0C0C43F1000399020023ED
:101964004FEA8C2041EA9C51FEF760FDD3E703481F
:1019740000E0034808BD00BF0038024040787D0104
:101984000024F400002800F09B8070B50D46044646
:101994004F4B1B6803F007038B4208D2CBB24C4A6F
:1019A4001370136803F007038B4240F08B802368A5
:1019B40013F0020F17D013F0040F04D0454A9368B4
:1019C40043F4E0539360236813F0080F04D0414AB2
:1019D400936843F4604393603E4A936823F0F003B2
:1019E400A1680B439360236813F0010F32D063683E
:1019F400012B21D09A1E012A25D9364A126812F0E9
:101A0400020F61D033498A6822F0030213438B60CA
:101A1400FFF7AEF906462F4B9B6803F00C03626890
:101A2400B3EB820F16D0FFF7A3F9801B41F2883382
:101A34009842F0D9032042E0264A126812F4003F8B
:101A4400E0D101203BE0234A126812F0007FD9D193
:101A5400012034E01E4B1B6803F00703AB4207D997
:101A6400EAB21B4B1A701B6803F00703AB422DD17B
:101A7400236813F0040F06D0164A936823F4E05346
:101A8400E1680B439360236813F0080F07D0114AF1
:101A9400936823F46043216943EAC1039360FFF729
:101AA4001FFF0C4B9B68C3F303130B4AD35CD84052
:101AB4000A4B18600A4B1868FFF70EF9002070BD36
:101AC400012070470120FAE70120F8E70120F6E73A
:101AD400003C024000380240502F00080000002063
:101AE40008000020014B1868704700BF0000002068
:101AF40008B5FFF7F7FF044B9B68C3F38223034A3F
:101B0400D35CD84008BD00BF00380240602F0008F5
:101B140008B5FFF7E7FF044B9B68C3F34233034A5E
:101B2400D35CD84008BD00BF00380240602F0008D5
:101B340070B4036A23F001030362036A466882698E
:101B440022F073020C6844EA020523F002028B6857
:101B540013430D4CA04209D00B4CA0420DD046605B
:101B640085614A684263036270BC704723F00803CE
:101B7400CA68134323F00403EEE726F440764A6967
:101B840032438E691643EAE70000014030B4036A29
:101B940023F480730362036A4568C26922F0730206
:101BA4000C68224323F400738C6843EA04230F4C2B
:101BB400A04209D00D4CA0420ED04560C2614A68D3
:101BC400C263036230BC704723F40063CC6843EA09
:101BD400042323F48063EDE725F440554C6945EA7A
:101BE40004158C6945EA0415E7E700BF00000140CD
:101BF40030B4036A23F480530362036A4468C269FD
:101C040022F4E6420D6842EA052223F400538D686B
:101C140043EA0533074DA84206D04460C2614A68CE
:101C24000264036230BC704724F480444D6944EA82
:101C34008514F2E70000014010B4036A046A24F03A
:101C440001040462846924F0F00C4CEA021223F0CB
:101C54000A030B438261036210BC704710B4046A28
:101C640024F0100404628469036A24F4704C4CEA7E
:101C7400023223F0A00343EA01138261036210BC21
:101C84007047836823F070030B4343F007038360BA
:101C94007047000090F83D30DBB2012B2AD10223BB
:101CA40080F83D300368154A934218D0B3F1804F51
:101CB40015D0A2F57C42934211D002F58062934282
:101CC4000DD002F58062934209D002F59A32934214
:101CD40005D01A6842F001021A60002070479A6821
:101CE40002F00702062A07D01A6842F001021A60BD
:101CF4000020704701207047002070470000014019
:101D0400704770477047704710B5044603681A69F6
:101D140012F0020F11D0DA6812F0020F0DD06FF03A
:101D240002021A610123037703689B6913F0030F0E
:101D340070D0FFF7E6FF0023237723681A6912F0B7
:101D4400040F12D0DA6812F0040F0ED06FF0040200
:101D54001A610223237723689B6913F4407F5FD0C1
:101D64002046FFF7CEFF0023237723681A6912F079
:101D7400080F12D0DA6812F0080F0ED06FF00802C4
:101D84001A61042323772368DB6913F0030F4ED011
:101D94002046FFF7B6FF0023237723681A6912F061
:101DA400100F12D0DA6812F0100F0ED06FF010027C
:101DB4001A61082323772368DB6913F4407F3DD03D
:101DC4002046FFF79EFF0023237723681A6912F049
:101DD400010F03D0DA6812F0010F36D123681A69B3
:101DE40012F0800F03D0DA6812F0800F34D1236828
:101DF4001A6912F0400F03D0DA6812F0400F32D1A2
:101E040023681A6912F0200F03D0DA6812F0200F49
:101E140030D110BDFFF774FF2046FFF773FF8AE748
:101E24002046FFF76DFF2046FFF76CFF9BE7204637
:101E3400FFF766FF2046FFF765FFACE72046FFF794
:101E44005FFF2046FFF75EFFBDE76FF001021A61F6
:101E54002046FEF7D9FCC1E76FF080021A612046E4
:101E640000F0A7FAC3E76FF040021A612046FFF7BB
:101E74004AFFC5E76FF020021A61204600F098FA85
:101E8400C7E700000368254A90420ED0B0F1804FA6
:101E94000BD0A2F57C42904207D002F580629042BA
:101EA40003D002F58062904203D123F070034A68A4
:101EB40013431A4A90421AD0B0F1804F17D0A2F5BA
:101EC4007C42904213D002F5806290420FD002F51A
:101ED400806290420BD002F59A32904207D002F50C
:101EE4008062904203D002F58062904203D123F4D1
:101EF4004073CA68134323F080034A6913430360A1
:101F04008B68C3620B688362044B984202D001233E
:101F1400436170470B690363F9E700BF00000140A8
:101F240040B310B5044690F83D30F3B1022384F871
:101F34003D30214651F8040BFFF7A4FF012384F838
:101F4400463084F83E3084F83F3084F8403084F8DA
:101F5400413084F8423084F8433084F8443084F8C3
:101F6400453084F83D30002010BD80F83C30FEF749
:101F740041FDDBE70120704740B310B5044690F8FB
:101F84003D30F3B1022384F83D30214651F8040B6F
:101F9400FFF778FF012384F8463084F83E3084F854
:101FA4003F3084F8403084F8413084F8423084F87B
:101FB400433084F8443084F8453084F83D300020C0
:101FC40010BD80F83C30FEF733FDDBE7012070479D
:101FD40030B4036A23F010030362036A446882691D
:101FE40022F4E6420D6842EA052223F020038D68BC
:101FF40043EA05130E4DA84209D00D4DA8420ED058
:10200400446082614A688263036230BC704723F093
:102014008003CD6843EA051323F04003EDE724F47D
:1020240040644D6944EA85048D6944EA8504E7E720
:102034000000014038B590F83C30012B66D00446CE
:102044000D46012380F83C300C2A5AD8DFE802F010
:10205400075959591B59595930595959440000685D
:10206400FFF766FD2268936943F0080393612268D1
:10207400936923F0040393612268936929690B43EC
:10208400936100203EE00068FFF7A2FF2268936995
:1020940043F4006393612268936923F4806393613A
:1020A40022689369296943EA01239361002029E0A6
:1020B4000068FFF76BFD2268D36943F00803D3611E
:1020C4002268D36923F00403D3612268D3692969A0
:1020D4000B43D361002015E00068FFF789FD2268F7
:1020E400D36943F40063D3612268D36923F4806322
:1020F400D3612268D369296943EA0123D3610020AB
:1021040000E00120002384F83C3038BD0220FCE7C5
:1021140010B4846824F47F4C42EA03220A4342EA5E
:102124000C02826010BC704790F83C30012B78D0D0
:1021340010B50446012380F83C30022380F83D307A
:102144000268936823F47F4323F0770393600B685A
:10215400602B4CD029D8402B54D00CD9502B22D1F1
:10216400CA6849680068FFF767FD50212068FFF7D7
:1021740088FD002005E0202B0DD009D9302B0AD092
:102184000120012384F83D30002384F83C3010BD45
:102194000BB1102B05D119462068FFF772FD002002
:1021A400EFE70120EDE70120EBE7B3F5805F34D0E2
:1021B400B3F5005F0CD1CB684A6889680068FFF703
:1021C400A7FF2268936843F4804393600020D8E714
:1021D400702B24D1CB684A6889680068FFF798FFA0
:1021E4002268936843F0770393600020C9E7CA68C4
:1021F40049680068FFF732FD60212068FFF741FD60
:102204000020BEE7CA6849680068FFF715FD402151
:102214002068FFF736FD0020B3E70020B1E7012076
:10222400AFE70220704701F01F01012303FA01FC0C
:10223400036A23EA0C030362036A02FA01F10B4303
:102244000362704710B504460846002932D194F859
:102254003E30DBB2013B18BF0123002B63D10028C1
:1022640041D1022384F83E30012201462068FFF761
:10227400DAFF23682E4A934245D023682C4A9342BE
:1022840046D0B3F1804F43D0A2F57C4293423FD075
:1022940002F5806293423BD002F58062934237D0CC
:1022A40002F59A32934233D01A6842F001021A605E
:1022B400002037E0042908D008290DD094F84130D3
:1022C400DBB2013B18BF0123C7E794F83F30DBB210
:1022D400013B18BF0123C0E794F84030DBB2013B57
:1022E40018BF0123B9E7042805D0082807D0022322
:1022F40084F84130B8E7022384F83F30B4E702237E
:1023040084F84030B0E75A6C42F400425A64B4E7AF
:102314009A6802F00702062A07D01A6842F00102FE
:102324001A60002010BD0120FCE70020FAE700BF7E
:102334000000014090F83C30012B34D010B401234C
:1023440080F83C30022380F83D3003685A689C686A
:1023540022F0700C0A6842EA0C025A600368134ABD
:10236400934212D0B3F1804F0FD0A2F57C42934236
:102374000BD002F58062934207D002F5806293424B
:1023840003D002F59A32934204D124F080044A68BF
:1023940014439C60012380F83D30002380F83C30D6
:1023A400184610BC70470220704700BF000001406F
:1023B40070477047026802F10C0353E8003F23F0B2
:1023C400C0030C3242E800310029F3D1202380F805
:1023D4003D307047026802F10C0353E8003F23F4D8
:1023E40090730C3242E800310029F3D1026802F103
:1023F400140353E8003F23F00103143242E8003190
:102404000029F3D1036B012B05D0202380F83E3043
:10241400002303637047026802F10C0353E8003F92
:1024240023F010030C3242E800310029F3D1ECE729
:1024340090F83D30DBB2212B01D002207047836835
:10244400B3F5805F17D0036A5A1C02621A780368D6
:102454005A60C38C9BB2013B9BB2C3844BB90268E4
:10246400D36823F08003D3600268D36843F0400349
:10247400D360002070470369002BE4D1036A1B88F2
:102484000268C3F308035360036A02330362E0E79C
:1024940038B504460268136923F44053C1680B43FA
:1024A400136183680269134342691343C2691A437F
:1024B4000168CB6823F4164323F00C031343CB6069
:1024C4000268536923F4407381690B4353610368C1
:1024D400314A934206D002F58062934202D0FFF75C
:1024E40007FB01E0FFF714FBE369B3F5004F29D0C4
:1024F4000021031849411B1841F10001C90041EAB8
:102504005371DB00181863684FEA83024FEA937330
:1025140041F10001FDF78AFF204DA5FB003251096E
:10252400642303FB11031B013233A5FB03235B0963
:1025340003F0F00202EB011203F00F0321681344CD
:102544008B6038BD0023021843EB0301121841F1DC
:102554000001C90041EA5271D200101841F1000192
:10256400626892185B41FDF761FF0C4DA5FB0032D8
:102574005109642303FB1103DB003233A5FB03235E
:102584005B095A0002F4F87202EB011203F007032C
:10259400216813448B60D4E7001001401F85EB5180
:1025A40058B310B5044690F83D300BB3242384F897
:1025B4003D302268D36823F40053D3602046FFF7EC
:1025C40067FF2268136923F49043136122685369F7
:1025D40023F02A0353612268D36843F40053D36081
:1025E40000202064202384F83D3084F83E3010BD60
:1025F40080F83C30FEF7C6FAD8E70120704710B5E2
:10260400044603685A6990F83D30DBB2212B0AD0A6
:1026140023685A6902F0400294F83E30DBB2222B60
:1026240019D0002010BD02F08002002AF0D02268E8
:1026340002F1140353E8003F23F08003143242E80C
:1026440000310029F3D1606B08B1FEF71CFD204670
:10265400FFF7B0FEDCE7002AE3D0226802F114039E
:1026640053E8003F23F04003143242E800310029CC
:10267400F3D1A06B08B1FEF706FD2046FFF7AAFED2
:10268400CFE7704708B50168CA6822F04002CA6003
:10269400202280F83D20FFF7F4FF002008BD70479A
:1026A4007047704710B5846B23685A6994F83D30BD
:1026B400DBB2212B10D023685A6902F0400294F84F
:1026C4003E30DBB2222B11D0236C43F01003236481
:1026D4002046FFF7E6FF10BD02F08002002AEAD090
:1026E4000023E3842046FFF765FEE4E7002AEBD0ED
:1026F4000023E3852046FFF76DFEE5E708B5806B10
:102704000023C385C384FFF7CCFF08BD704790F84E
:102714003E30DBB2222B67D18368B3F5805F4DD0A6
:10272400826AB3F5805F04D0002B54D10369002B77
:1027340051D103685B681370836A01338362C38D6C
:102744009BB2013B9BB2C385002B4FD100B583B034
:102754000268D36823F02003D3600268D36823F4AB
:102764008073D3600268536923F00103536120230B
:1027740080F83E30036B012B33D1002303630268DE
:1027840002F10C0353E8003F23F010030C3242E83B
:1027940000310029F3D103681A6812F0100F06D033
:1027A400002201921A6801925B680193019B818D5A
:1027B400FFF7ACFF002003B05DF804FB0269002AB8
:1027C400AED1826A03685B68C3F308031380836A2B
:1027D40002338362B3E703685B6803F07F0313701B
:1027E400AAE7FFF75CFFE5E7022070470020704787
:1027F40030B583B0044602681368D068516913F099
:102804000F0505D113F0200F02D010F0200F19D1BD
:102814002DB111F0010119D110F4907F16D1216B63
:1028240001297DD013F0800F03D010F0800F40F009
:10283400158113F0400F03D010F0400F40F01281C7
:1028440003B030BD2046FFF762FFF9E713F0010F34
:1028540006D010F4807F03D0226C42F0010222647F
:1028640013F0040F04D019B1226C42F00202226466
:1028740013F0020F04D019B1226C42F00402226456
:1028840013F0080F07D010F0200F00D119B1226CFB
:1028940042F008022264226C002AD1D013F0200FE7
:1028A40002D010F0200F29D123685B6903F04003A4
:1028B400226C12F0080F00D163B32046FFF78AFDA3
:1028C40023685B6913F0400F20D0226802F11403DF
:1028D40053E8003F23F04003143242E8003100295A
:1028E400F3D1A36B73B1614A1A65A06BFEF715FCB3
:1028F4000028A5D0A06B036D9847A1E72046FFF7F9
:1029040006FFD1E72046FFF7CCFE99E72046FFF704
:10291400C8FE95E72046FFF7C4FE002323648FE733
:1029240013F0100F3FF47EAF10F0100F3FF47AAFA6
:10293400002301931368019353680193019B536926
:1029440013F0400F50D0A26B13685B689BB2002B4E
:102954003FF476AFA18D99427FF672AFE385D369D8
:10296400B3F5807F37D0226802F10C0353E8003FAF
:1029740023F480730C3242E800310029F3D1226839
:1029840002F1140353E8003F23F00103143242E838
:1029940000310029F3D1226802F1140353E8003F07
:1029A40023F04003143242E800310029F3D12023FC
:1029B40084F83E3000232363226802F10C0353E8B9
:1029C400003F23F010030C3242E800310029F3D118
:1029D400A06BFEF758FBA18DE38D9BB2C91A89B297
:1029E4002046FFF793FE2BE7A18DE38D9BB2C91A16
:1029F40089B2E38D9BB2002B3FF422AF00293FF450
:102A04001FAF226802F10C0353E8003F23F49073D4
:102A14000C3242E800300028F3D1226802F114039A
:102A240053E8003F23F00103143242E80030002849
:102A3400F3D1202384F83E3000232363226802F17B
:102A44000C0353E8003F23F010030C3242E800303B
:102A54000028F3D12046FFF759FEF1E62046FFF7A0
:102A6400E7FCEDE62046FFF70DFEE9E60127000846
:102A740008B5806B036B012B02D0FFF711FE08BD74
:102A8400818D4908FFF742FEF9E708B50346806BDC
:102A94001B681B6813F4807F2BD10023C385026855
:102AA40002F10C0353E8003F23F480730C3242E834
:102AB40000310029F3D1026802F1140353E8003F06
:102AC40023F00103143242E800310029F3D10268F3
:102AD40002F1140353E8003F23F04003143242E8A8
:102AE40000310029F3D1202380F83E30036B012B01
:102AF40005D0036B012B0FD0FFF7D1FD08BD026891
:102B040002F10C0353E8003F23F010030C3242E8B7
:102B140000310029F3D1ECE7818DFFF7F7FDEDE7F4
:102B240030B583B00446134681628285002505646E
:102B3400222280F83E20826B2048D063A26B20487A
:102B44001064A26B1F48D064A26B156520680A4606
:102B5400011DA06BFEF762FA019523681A680192C1
:102B64005B680193019B84F83C5023695BB1226844
:102B740002F10C0353E8003F43F480730C3242E843
:102B840000310029F3D1226802F1140353E8003F15
:102B940043F00103143242E800310029F3D12268E2
:102BA40002F1140353E8003F43F04003143242E8B7
:102BB40000310029F3D1002003B030BD8F2A000872
:102BC400752A0008A926000808B590F83E30DBB243
:102BD400202B0DD171B17AB190F83C30012B0DD07E
:102BE400012380F83C3000230363FFF799FF00E0E2
:102BF400022008BD0120FCE70120FAE70220F8E7E3
:102C040008B505480268D36843F01003D360FF2277
:102C14000249FFF7D9FF08BDB0050020F8050020E0
:102C2400F8B50546FFF7EBFCAB6B1B685C68E4B2D8
:102C3400E443E4B2154B1B782C2B0BD0134E2246E5
:102C44000021304600F0B4F8FF2231462846FFF751
:102C5400BBFFF8BD0D4B5B78122BEFD10B4BD3F8B8
:102C640002600B4B1E60F0B206F47F431843094F19
:102C740000B2FDF767FB3860C6F30740360E40EA42
:102C8400062000B2FDF75EFB7860D7E7F805002068
:102C9400F80600204C08002003680B4A934200D039
:102CA40070471A6812F0100FFAD000B583B00022F2
:102CB40001921A6801925B680193019BFFF7B0FFD0
:102CC40003B05DF804FB00BF001001400023036063
:102CD40043608360C360036143618361C3610362D2
:102CE40043628362012280F82C20036343634FF024
:102CF4007E5181630749C16380F84020002280F837
:102D040041204364044B8364044BC364044B036554
:102D1400704700BF0000704100803B4500401F46E3
:102D24000080474510B50C48FFF7D0FF0B4C00213D
:102D34002046FFF787FA04212046FFF783FA246828
:102D4400074B1868FDF752FBA063064B1868FDF7A4
:102D54004DFB606310BD00BFF8070020A8040020ED
:102D6400100000200C00002070B50D4E0D4D761B98
:102D7400B61006D0002455F8043B01349847A64207
:102D8400F9D1094E094D761B00F0D4F8B61006D0DF
:102D9400002455F8043B01349847A642F9D170BD8C
:102DA4007C2F00087C2F0008842F00087C2F00084B
:102DB400830730B548D0541E002A3FD0CAB2034618
:102DC40001E0013C3AD303F8012B9D07F9D1032C10
:102DD4002DD9CDB245EA05250F2C45EA054536D94E
:102DE400A4F1100222F00F0C03F1200EE6444FEA86
:102DF400121C03F1100242E9045542E90255103253
:102E04007245F8D10CF1010214F00C0F03EB02121D
:102E140004F00F0C13D0ACF1040323F003030433C8
:102E2400134442F8045B9342FBD10CF003042CB12D
:102E3400CAB21C4403F8012B9C42FBD130BD64464A
:102E44001346002CF4D1F9E703461446BFE71A46AB
:102E5400A446E0E7024B13B1024800F005B87047FE
:102E640000000000792E0008002301461A46184687
:102E740000F01AB838B5084B084D5B1B9C1007D0FE
:102E8400043B1D44013C55F804399847002CF9D102
:102E9400BDE8384000F054B8882F0008842F00089B
:102EA400704700BF704700BF2DE9F047DFF87CA0F2
:102EB4000646DAF8000098460F469146FFF7F0FF01
:102EC4001B4B1B68D3F8484124B365681F2D26DCCF
:102ED4005EB96B1C0235DAF80000636044F82570B3
:102EE400FFF7E0FF0020BDE8F08704EB8501012334
:102EF400C1F88890D4F88821AB401A43022EC4F854
:102F04008821C1F80881E4D1D4F88C211343C4F892
:102F14008C31DEE703F5A674C3F84841D5E7DAF847
:102F24000000FFF7BFFF4FF0FF30DCE74004002054
:102F3400702F0008F8B500BFF8BC08BC9E46704767
:0C2F4400F8B500BFF8BC08BC9E46704702
:102F50000000000000000000010203040607080949
:102F600000000000010203040006101600061016FF
:042F70001800002025
:082F7400ECD4FF7F0100000016
:082F7C00592E0008B9010008FC
:042F840095010008AB
:102F88000024F40001000000100000000040A644E6
:102F980000808944000000000000000004030020B5
:102FA8006C030020D4030020000000000000000093
:102FB8000000000000000000000000000000000009
:102FC80000000000000000000000000000000000F9
:102FD80000000000000000000000000000000000E9
:102FE80000000000000000000000000000000000D9
:102FF80000000000000000000000000000000000C9
:1030080000000000000000000000000000000000B8
:1030180000000000000000000000000000000000A8
:103028000000000000000000000000000000000098
:103038000000000000000000000000000000000088
:1030480001000000000000000E33CDAB34126DE625
:10305800ECDE05000B00000000000000000000008E
:103068000000000000000000000000000000000058
:103078000000000000000000000000000000000048
:103088000000000000000000000000000000000038
:103098000000000000000000000000000000000028
:0433C8005408002085
:0400000508000C895A
:00000001FF
